{
  "abi": [
    {
      "inputs": [],
      "name": "a",
      "outputs": [
        {
          "internalType": "uint256",
          "name": "",
          "type": "uint256"
        }
      ],
      "stateMutability": "nonpayable",
      "type": "function"
    },
    {
      "inputs": [],
      "name": "b",
      "outputs": [],
      "stateMutability": "nonpayable",
      "type": "function"
    }
  ],
  "bytecode": {
    "object": "0x608060405234801561001057600080fd5b50610156806100206000396000f3fe608060405234801561001057600080fd5b50600436106100365760003560e01c80630dbe671f1461003b5780634df7e3d014610055575b600080fd5b61004361005f565b60405190815260200160405180910390f35b61005d610070565b005b600061006b6002610086565b905090565b60008054908061007f836100d1565b9190505550565b60006001821161009857506001919050565b6100ab6100a66001846100ea565b610086565b6100b59083610101565b92915050565b634e487b7160e01b600052601160045260246000fd5b6000600182016100e3576100e36100bb565b5060010190565b6000828210156100fc576100fc6100bb565b500390565b600081600019048311821515161561011b5761011b6100bb565b50029056fea26469706673582212207ff0022e73537bd40c24ff86858fdb98a5b554c4136f1658d4c4b100bd3527f164736f6c634300080f0033",
    "linkReferences": {}
  },
  "methodIdentifiers": {
    "a()": "0dbe671f",
    "b()": "4df7e3d0"
  },
  "id": 0
}