{
  "abi": [
    {
      "inputs": [],
      "stateMutability": "nonpayable",
      "type": "constructor"
    },
    {
      "stateMutability": "payable",
      "type": "fallback"
    },
    {
      "inputs": [
        {
          "internalType": "uint256",
          "name": "_x",
          "type": "uint256"
        }
      ],
      "name": "SetX",
      "outputs": [
        {
          "internalType": "bool",
          "name": "",
          "type": "bool"
        }
      ],
      "stateMutability": "nonpayable",
      "type": "function"
    }
  ],
  "bytecode": {
    "object": "0x608060405234801561001057600080fd5b50600a60005560e7806100246000396000f3fe608060405260043610601c5760003560e01c8063117da416146041575b336000908152600160205260408120805434929060399084906074565b925050819055005b348015604c57600080fd5b50606060583660046099565b600055600190565b604051901515815260200160405180910390f35b60008219821115609457634e487b7160e01b600052601160045260246000fd5b500190565b60006020828403121560aa57600080fd5b503591905056fea264697066735822122062ccbc1aaada7e1ff05c9f8abf0bc1aedb91cef77722e49978e449c1d97d09f464736f6c634300080f0033",
    "linkReferences": {}
  },
  "methodIdentifiers": {
    "SetX(uint256)": "117da416"
  },
  "id": 0
}