{
  "abi": [
    {
      "inputs": [
        {
          "internalType": "bytes",
          "name": "code",
          "type": "bytes"
        }
      ],
      "name": "solve",
      "outputs": [],
      "stateMutability": "nonpayable",
      "type": "function"
    },
    {
      "inputs": [],
      "name": "solved",
      "outputs": [
        {
          "internalType": "bool",
          "name": "",
          "type": "bool"
        }
      ],
      "stateMutability": "view",
      "type": "function"
    }
  ],
  "bytecode": {
    "object": "0x60806040526000805460ff1916905534801561001a57600080fd5b506106018061002a6000396000f3fe608060405234801561001057600080fd5b50600436106100365760003560e01c8063799320bb1461003b578063c000a7021461005c575b600080fd5b6000546100489060ff1681565b604051901515815260200160405180910390f35b61006f61006a366004610303565b610071565b005b600081511161007f57600080fd5b610088816101ad565b6100cd5760405162461bcd60e51b81526020600482015260126024820152716465706c6f792f636f64652d756e7361666560701b604482015260640160405180910390fd5b6000816040516100dc906102e0565b6100e691906103b4565b604051809103906000f080158015610102573d6000803e3d6000fd5b509050600080826001600160a01b0316604051600060405180830381855afa9150503d8060008114610150576040519150601f19603f3d011682016040523d82523d6000602084013e610155565b606091505b50915091508180156101765750835160208501206001600160a01b0384163f145b80156101915750805160208201206001600160a01b0384163f145b61019a57600080fd5b50506000805460ff191660011790555050565b6000805b82518110156102d75760008382815181106101ce576101ce610409565b016020015160f81c9050603081108015906101ed575060488160ff1611155b156101fc575060009392505050565b8060ff166054148061021157508060ff166055145b8061021f57508060ff1660f0145b8061022d57508060ff1660f1145b8061023b57508060ff1660f2145b8061024957508060ff1660f4145b8061025757508060ff1660f5145b8061026557508060ff1660fa145b8061027357508060ff1660ff145b15610282575060009392505050565b60608160ff1610158015610299575060808160ff16105b156102c4576102a9606082610435565b6102b4906001610458565b6102c19060ff168361047d565b91505b816102ce81610495565b925050506101b1565b50600192915050565b61011d806104af83390190565b634e487b7160e01b600052604160045260246000fd5b60006020828403121561031557600080fd5b813567ffffffffffffffff8082111561032d57600080fd5b818401915084601f83011261034157600080fd5b813581811115610353576103536102ed565b604051601f8201601f19908116603f0116810190838211818310171561037b5761037b6102ed565b8160405282815287602084870101111561039457600080fd5b826020860160208301376000928101602001929092525095945050505050565b600060208083528351808285015260005b818110156103e1578581018301518582016040015282016103c5565b818111156103f3576000604083870101525b50601f01601f1916929092016040019392505050565b634e487b7160e01b600052603260045260246000fd5b634e487b7160e01b600052601160045260246000fd5b600060ff821660ff84168082101561044f5761044f61041f565b90039392505050565b600060ff821660ff84168060ff038211156104755761047561041f565b019392505050565b600082198211156104905761049061041f565b500190565b6000600182016104a7576104a761041f565b506001019056fe608060405234801561001057600080fd5b5060405161011d38038061011d83398101604081905261002f9161004d565b805160208201f35b634e487b7160e01b600052604160045260246000fd5b6000602080838503121561006057600080fd5b82516001600160401b038082111561007757600080fd5b818501915085601f83011261008b57600080fd5b81518181111561009d5761009d610037565b604051601f8201601f19908116603f011681019083821181831017156100c5576100c5610037565b8160405282815288868487010111156100dd57600080fd5b600093505b828410156100ff57848401860151818501870152928501926100e2565b828411156101105760008684830101525b9897505050505050505056fea2646970667358221220e4f5885df2a80c9f1aa15f422dd973b90d3113e38a102757d61a2eb5d2b1cb6864736f6c634300080f0033",
    "linkReferences": {}
  },
  "methodIdentifiers": {
    "solve(bytes)": "c000a702",
    "solved()": "799320bb"
  },
  "id": 9
}